S00B00004C43442E7372656346
S113000045C0000058C0000056C0000054C00000A5
S113001052C0000050C000004EC000004CC00000A0
S11300204AC0000048C0000046C0000044C00000B0
S113003042C0000040C000003EC000003CC00000C0
S11300403AC0000038C0000036C0000034C00000D0
S113005032C0000030C000002EC000002CC00000E0
S11300602AC0000028C0000026C0000024C00000F0
S113007022C0000020C000001EC000001CC0000000
S11300801AC0000018C0000016C0000011241FBED2
S1130090CFEFD0E1DEBFCDBF11E0A0E0B1E0EEEBE9
S11300A0F1E000E00BBF02C007900D92A830B10749
S11300B0D9F772D082C0A4CFC79A85E08A95F1F7A8
S11300C00000C79885E38A95F1F700000895C59A62
S11300D085BBF2DF87EC90E00197F1F700C00000E8
S11300E00895C59885BBE8DF87EC90E00197F1F7A8
S11300F000C00000089581E0F4DF2FEF86E791E06F
S1130100215080409040E1F700C0000008952FEF97
S113011081EE94E0215080409040E1F700C000005F
S11301208FEF84BB15BA87B3806E87BBC69888E30C
S1130130D8DF8FE39CE90197F1F700C00000C6986F
S113014088E3CFDF8FE39CE90197F1F700C000005B
S1130150C69888E3C6DF8FE39CE90197F1F700C0F6
S113016000008CE0BEDFC7DF86E0BBCF08950F93AD
S11301701F93CF93FC018081882351F08F01C0E04D
S1130180A6DFCF5FF801EC0FF11D80818111F8CF5C
S1130190CF911F910F9108958FEF82BB81BBB7DF81
S11301A080E091E0E4DF2FEF83EC99E02150804080
S11101B09040E1F700C00000F3CFF894FFCFB9
S10B01BE48454C4C4F5700006A
S9030000FC
